{
  "contractName": "MultiSig",
  "abi": [
    {
      "inputs": [
        {
          "internalType": "address[]",
          "name": "_approvers",
          "type": "address[]"
        },
        {
          "internalType": "uint256",
          "name": "_quorum",
          "type": "uint256"
        }
      ],
      "stateMutability": "payable",
      "type": "constructor",
      "payable": true
    },
    {
      "inputs": [
        {
          "internalType": "uint256",
          "name": "",
          "type": "uint256"
        }
      ],
      "name": "approvers",
      "outputs": [
        {
          "internalType": "address",
          "name": "",
          "type": "address"
        }
      ],
      "stateMutability": "view",
      "type": "function",
      "constant": true
    },
    {
      "inputs": [],
      "name": "quorum",
      "outputs": [
        {
          "internalType": "uint256",
          "name": "",
          "type": "uint256"
        }
      ],
      "stateMutability": "view",
      "type": "function",
      "constant": true
    },
    {
      "inputs": [
        {
          "internalType": "uint256",
          "name": "",
          "type": "uint256"
        }
      ],
      "name": "transfers",
      "outputs": [
        {
          "internalType": "uint256",
          "name": "id",
          "type": "uint256"
        },
        {
          "internalType": "uint256",
          "name": "amount",
          "type": "uint256"
        },
        {
          "internalType": "address payable",
          "name": "to",
          "type": "address"
        },
        {
          "internalType": "uint256",
          "name": "approvals",
          "type": "uint256"
        },
        {
          "internalType": "bool",
          "name": "sent",
          "type": "bool"
        }
      ],
      "stateMutability": "view",
      "type": "function",
      "constant": true
    },
    {
      "inputs": [
        {
          "internalType": "uint256",
          "name": "amount",
          "type": "uint256"
        },
        {
          "internalType": "address payable",
          "name": "to",
          "type": "address"
        }
      ],
      "name": "createTransfer",
      "outputs": [],
      "stateMutability": "nonpayable",
      "type": "function"
    },
    {
      "inputs": [
        {
          "internalType": "uint256",
          "name": "id",
          "type": "uint256"
        }
      ],
      "name": "sendTransfer",
      "outputs": [],
      "stateMutability": "nonpayable",
      "type": "function"
    }
  ],
  "bytecode": "0x6080604052604051610750380380610750833981016040819052610022916100d5565b815161003590600090602085019061003f565b50600155506101b3565b828054828255906000526020600020908101928215610094579160200282015b8281111561009457825182546001600160a01b0319166001600160a01b0390911617825560209092019160019091019061005f565b506100a09291506100a4565b5090565b5b808211156100a057600081556001016100a5565b80516001600160a01b03811681146100d057600080fd5b919050565b600080604083850312156100e7578182fd5b82516001600160401b03808211156100fd578384fd5b818501915085601f830112610110578384fd5b81516020828211156101245761012461019d565b808202604051828282010181811086821117156101435761014361019d565b604052838152828101945085830182870184018b1015610161578889fd5b8896505b8487101561018a57610176816100b9565b865260019690960195948301948301610165565b5097909101519698969750505050505050565b634e487b7160e01b600052604160045260246000fd5b61058e806101c26000396000f3fe608060405234801561001057600080fd5b50600436106100575760003560e01c80631703a0181461005c5780634c12fa471461007a5780639377d7111461008f578063d1c68d1e146100b3578063d3650fb8146100c6575b600080fd5b6100646100e6565b60405161007191906104fa565b60405180910390f35b61008d610088366004610446565b6100ec565b005b6100a261009d36600461042e565b610221565b604051610071959493929190610503565b61008d6100c136600461042e565b61025d565b6100d96100d436600461042e565b610404565b6040516100719190610480565b60015481565b6000805b60005481101561015757336001600160a01b03166000828154811061012557634e487b7160e01b600052603260045260246000fd5b6000918252602090912001546001600160a01b0316141561014557600191505b8061014f81610531565b9150506100f0565b506001811515146101835760405162461bcd60e51b815260040161017a90610494565b60405180910390fd5b6040805160a0810182526003805480835260208084018881526001600160a01b038881168688019081526000606088018181526080890182815296825260029586905298812097518855925160018801555192860180546001600160a01b0319169390911692909217909155935183830155516004909201805460ff19169215159290921790915580549161021783610531565b9190505550505050565b6002602081905260009182526040909120805460018201549282015460038301546004909301549193926001600160a01b039091169160ff1685565b6000805b6000548110156102c857336001600160a01b03166000828154811061029657634e487b7160e01b600052603260045260246000fd5b6000918252602090912001546001600160a01b031614156102b657600191505b806102c081610531565b915050610261565b506001811515146102eb5760405162461bcd60e51b815260040161017a90610494565b60008281526002602052604090206004015460ff161561031d5760405162461bcd60e51b815260040161017a906104c3565b33600090815260046020908152604080832085845290915290205460ff16610380573360009081526004602090815260408083208584528252808320805460ff191660011790556002909152812060030180549161037a83610531565b91905055505b6001546000838152600260205260409020600301541061040057600082815260026020819052604080832060048101805460ff191660019081179091559281015492015490516001600160a01b03909216929091839183156108fc02918491818181858888f193505050501580156103fc573d6000803e3d6000fd5b5050505b5050565b6000818154811061041457600080fd5b6000918252602090912001546001600160a01b0316905081565b60006020828403121561043f578081fd5b5035919050565b60008060408385031215610458578081fd5b8235915060208301356001600160a01b0381168114610475578182fd5b809150509250929050565b6001600160a01b0391909116815260200190565b60208082526015908201527413db9b1e48185c1c1c9bdd995c88185b1b1bddd959605a1b604082015260600190565b6020808252601e908201527f5472616e736665722068617320616c7265616479206265656e2073656e740000604082015260600190565b90815260200190565b94855260208501939093526001600160a01b0391909116604084015260608301521515608082015260a00190565b600060001982141561055157634e487b7160e01b81526011600452602481fd5b506001019056fea2646970667358221220adf319e06a5ff17c7c19a568022e5c5731a1a9f6e72aabd65b1b044a6b5b806464736f6c63430008000033",
  "immutableReferences": {},
  "source": "// SPDX-License-Identifier: MIT \r\npragma solidity ^0.8.0;\r\n\r\ncontract MultiSig {\r\n    address[] public approvers;\r\n    uint public quorum;\r\n\r\n    struct Transfer {\r\n        uint id;\r\n        uint amount;\r\n        address payable to;\r\n        uint approvals;\r\n        bool sent;\r\n    }\r\n\r\n    mapping(uint => Transfer) public transfers;\r\n    uint nextId;\r\n    mapping(address => mapping(uint => bool)) approvals;\r\n\r\n    constructor(address[] memory _approvers, uint _quorum) payable {\r\n        approvers = _approvers;\r\n        quorum = _quorum;\r\n    }\r\n\r\n    function createTransfer(uint amount, address payable to) onlyApprover() external {\r\n        transfers[nextId] = Transfer (\r\n            nextId,\r\n            amount,\r\n            to,\r\n            0,\r\n            false\r\n        );\r\n        nextId++;\r\n    }\r\n\r\n    function sendTransfer(uint id) external onlyApprover() {\r\n        require(transfers[id].sent == false, 'Transfer has already been sent');\r\n        if(approvals[msg.sender][id] == false) {\r\n            approvals[msg.sender][id] = true;\r\n            transfers[id].approvals++;\r\n        }\r\n        if (transfers[id].approvals >= quorum) {\r\n            transfers[id].sent = true;\r\n            address payable to = transfers[id].to;\r\n            uint amount = transfers[id].amount;\r\n            to.transfer(amount);\r\n            return;\r\n        }\r\n    }\r\n\r\n    modifier onlyApprover() {\r\n        bool allowed = false;\r\n        for(uint i=0; i<approvers.length; i++) {\r\n            if(approvers[i] == msg.sender) {\r\n                allowed = true;\r\n            }\r\n        }\r\n        require(allowed == true, 'Only approver allowed');\r\n        _;\r\n    }\r\n}",
  "sourcePath": "C:\\Users\\cassi\\Documents\\DApps\\MultiSig\\contracts\\MultiSig.sol",
  "compiler": {
    "name": "solc",
    "version": "0.8.0+commit.c7dfd78e.Emscripten.clang"
  },
  "schemaVersion": "3.4.16",
  "updatedAt": "2023-11-15T21:59:09.565Z",
  "networkType": "ethereum",
  "devdoc": {
    "kind": "dev",
    "methods": {},
    "version": 1
  },
  "userdoc": {
    "kind": "user",
    "methods": {},
    "version": 1
  }
}